:020000040800F2
:10000000F00E0020A1010008571C0008C51B0008C5
:10001000551C000887020008F536000800000000A3
:10002000000000000000000000000000B11F0008F8
:10003000B502000800000000FD1C0008BD1F0008FC
:10004000BB010008BB010008BB010008BB010008A0
:10005000BB010008BB010008BB010008BB01000890
:10006000BB010008BB010008BB010008BB01000880
:10007000BB010008BB010008BB010008BB01000870
:10008000BB010008BB010008BB010008BB01000860
:10009000BB010008BB010008BB010008BB01000850
:1000A000BB010008BB010008BB010008BB01000840
:1000B000BB010008BB010008BB010008BB01000830
:1000C000BB010008BB010008BB010008BB01000820
:1000D000BB010008BB010008BB010008BB01000810
:1000E000BB010008BB010008BB010008BB01000800
:1000F000BB010008BB010008BB010008BB010008F0
:10010000BB010008BB010008BB010008BB010008DF
:10011000BB010008BB010008BB010008BB010008CF
:10012000BB010008BB010008BB010008BB010008BF
:10013000BB010008BB010008BB010008BB010008AF
:10014000BB010008BB010008BB010008591C0008E6
:10015000BB010008BB010008BB010008BB0100088F
:10016000BB010008BB010008BB010008BB0100087F
:10017000BB010008BB0100080000000000000000F7
:10018000BB010008BB010008DFF810D000F03EF80A
:100190000048004735370008AFF30080F00E00201C
:1001A0000648804706480047FEE7FEE7FEE7FEE711
:1001B000FEE7FEE7FEE7FEE7FEE7FEE76920000850
:1001C0008901000840EA01039B0703D009E008C940
:1001D000121F08C0042AFAD203E011F8013B00F80C
:1001E000013B521EF9D27047D2B201E000F8012B58
:1001F000491EFBD270470022F6E710B513460A46A7
:1002000004461946FFF7F0FF204610BD064C074D87
:1002100006E0E06840F0010394E8070098471034D6
:10022000AC42F6D3FFF7B4FFDC370008FC37000818
:1002300070B58C1810F8015B15F0070301D110F8A8
:10024000013B2A1106D110F8012B03E010F8016BD5
:1002500001F8016B5B1EF9D12B0705D40023521E58
:100260000DD401F8013BFAE710F8013BCB1A921CC0
:1002700003E013F8015B01F8015B521EF9D5A142BE
:10028000D8D3002070BDFEE70020704700207047E3
:1002900010B5014640220548FFF794FF402203496C
:1002A000034801F097FF002010BD00004C0600201D
:1002B0007C010020704772B6FEE7000070B504466E
:1002C00000F046F90546601C02D00448007804445A
:1002D00000F03EF9401BA042FAD370BD940000200C
:1002E0002DE9F04FDFF83492002309F1040A0124CC
:1002F00003250AF1040B87B00F270BF1040E04E16C
:1003000004FA03F632407CD0D1F804C0BCF1010FEE
:1003100008D0BCF1020F05D0BCF1110F02D0BCF126
:10032000120F29D1D0F808C0CDF800C04FEA430C15
:1003300005FA0CF8CDF80CC0DDF800C02CEA080C6A
:10034000CDF800C0D1F80C80DDF80CC008FA0CF82C
:10035000DDF800C048EA0C08C0F80880D0F8048036
:1003600091F804C028EA0608CCF3001C0CFA03FC40
:100370004CEA080CC0F804C0D1F804806FEA080CFD
:100380005FEA8C7C09D1D0F82CC02CEA060CC8F3AB
:10039000C0069E4046EA0C06C662D0F80CC04FEA82
:1003A000430805FA08F62CEA060CCDF814800296EC
:1003B0008E6806FA08F646EA0C06C6604E68022EFB
:1003C00001D0122E15D1DE0800EB86060396366AA0
:1003D0004FEA437C4FEADC6807FA08FC26EA0C0681
:1003E000D1F810C00CFA08FC4CEA060C039EC6F8C3
:1003F00020C00668DDF808C026EA0C0691F804C0A3
:1004000000E081E0DDF814800CF0030C0CFA08FC2D
:100410004CEA060CC0F800C04E68F60074D5404E99
:10042000D6F860C04CF0010CC6F860C0366E23F000
:10043000030C06F0010600963A4E66440296D6F882
:1004400008C09E074FEA167807FA08F62CEA060C51
:10045000B0F1904F04D0344EB04203D101261BE0DE
:10046000002619E0314EB04201D1022614E0304E90
:10047000B04201D103260FE02E4EB04201D1042636
:100480000AE02D4EB04201D1052605E02B4EB042C8
:1004900001D1062600E0072606FA08F646EA0C0611
:1004A000DDF808C0CCF80860D9F80060CC46D1F877
:1004B000048096435FEAC83800D51643CCF8006044
:1004C000DAF80060D446D1F8048096435FEA8838B1
:1004D00000D51643CCF80060DBF80060DC46D1F8AC
:1004E000048096435FEAC82800D51643CCF8006024
:1004F000DEF80060F446D1F8048096435FEA88286D
:1005000000D51643CCF800605B1C0A6832FA03F68B
:100510007FF4F6AE07B000F013B80000000401400D
:10052000001002400000014000040048000800489C
:10053000000C004800100048001400480018004853
:1005400030BCBDE8C08F0AB18161704781627047DD
:1005500001488068704700009400002002488168CC
:1005600002781144816070479400002010B5002487
:10057000032000F071F8002000F008F808B1012411
:1005800001E000F025F8204610BD000070B50E4EC9
:1005900005460024307898B14FF47A71B1FBF0F041
:1005A0000A490968B1FBF0F001F0F8FA40B9102DE2
:1005B00006D200222946501E00F02EF8756000E099
:1005C0000124204670BD000094000020A0000020FF
:1005D000094808B5016E41F001010166016E01F0A4
:1005E00001010091816D41F080518165806D00F0C5
:1005F0008050009008BD000000100240002809DB78
:1006000000F01F02012191404009800000F1E0202C
:10061000C0F8001170470000F0B40E4B1B680C4688
:10062000C3F30223C3F10705042D00D90425191DC6
:10063000072901D2002300E0DB1E012606FA05F19E
:10064000491E214099409E40761E16403143F0BC21
:1006500003F051B80CED00E0064900F0070208680D
:100660004FF6FF03184040EA0220034A1043086097
:10067000704700000CED00E00000FA05012201685F
:10068000C0F8FC23002280F8F423886940F0006061
:100690008861486D024A1043486500207047000099
:1006A0000300001070B5164D0446A1B1012911D107
:1006B0002068D0F8001E41F00101C0F8001ED4F8F7
:1006C000040402F08EF9206A002803D0286840F064
:1006D0000600286070BD206A28B101F071FC28680E
:1006E00020F0060028602068D0F8001E21F00101EB
:1006F000C0F8001ED4F80404BDE8704002F0F4B85D
:1007000010ED00E00068416200207047F0B503681A
:10071000586A39B19C6A4FF4827600EB1444002089
:100720004D1E0AE040EA024098620FE006EB8007A7
:10073000DF59401C04EB1744C0B2A842F6D344EA88
:1007400002404FF4807202EB810158500020F0BD4E
:10075000D0F8040402F00AB8C1EBC10200EB820237
:10076000D0F80404926C01F077BFC1EBC10200EB3A
:100770008202D0F80404D2F8082201F0C1BFD0F8F8
:10078000040401F0F5BF70B504460B0601F00F003C
:10079000C0EBC00104EB81014FF001024FF00005F6
:1007A00003D581F83D203C3103E081F8FD5101F58E
:1007B000FE71087094F8BC03012808D084F8BC23AB
:1007C000206802F089FB84F8BC53002070BD022031
:1007D00070BD70B5044601F00F006268904201D907
:1007E000012070BD0B0601F00F01C1EBC10104EB4C
:1007F00081014FF001024FF0000503D581F83D2043
:100800003C3103E081F8FD5101F5FE718D700870F7
:1008100094F8BC03012808D084F8BC23206802F0B7
:1008200029FD84F8BC53002070BD022070BD2DE965
:10083000F04104460F0601F00F00C0EBC00104EBCD
:1008400081014FF001064FF0000503D581F83D60AE
:100850003C3103E081F8FD5101F5FE7108708A60BA
:10086000CB704A7802B1C880022B00D10D7194F888
:10087000BC03012809D084F8BC63206802F0B4FAF4
:10088000284684F8BC53BDE8F0810220FBE770B530
:100890000C4601F00F05C5EBC50100EB8101C1F865
:1008A00008220022C1E9843281F8FD2181F8FC513F
:1008B000006801F5FE71220703D002F033FD00202D
:1008C00070BD02F03FFCFAE770B504460D4601F03A
:1008D0000F006168884201D9012070BD29064FF0E0
:1008E00000064FF0010207D5C0EBC00104EB810107
:1008F00081F83D203C3107E0C5EBC50104EB8101E7
:1009000081F8FD6101F5FE718A70087094F8BC03EE
:10091000012807D084F8BC23206802F0D7FC280700
:1009200002D006E0022070BD04F57171206802F06B
:100930007FFC84F8BC63002070BD70B50C4601F0EC
:100940000F05C5EBC50100EB81018A640022C1E9F6
:100950001432012281F83D2001F83C5F0068220733
:1009600003D002F0DFFC002070BD02F0EBFBFAE7E1
:100970002DE9F84F05680446284602F0D1FD00280D
:1009800079D1206802F0F8FD002874D0206802F0C8
:10099000F3FD800704D52168486900F00200486132
:1009A000206802F0E9FDC10604F57170009034D5AD
:1009B0002068816921F0100181612F6A07F00F0022
:1009C000C0EBC00004EB8006C7F3434006F5FE769B
:1009D000022802D0062811D01AE047F6F0710F4223
:1009E00016D0C7F30A173A462846F16802F0C8FD48
:1009F000F0683844F060B069384408E008222846BE
:100A0000009902F0BDFDB169C7F30A100844B06156
:100A10002068816941F010018161206802F0ACFD1D
:100A200000034FF001094FF0080A4FF0100B61D599
:100A30000026206802F07FFD074659E0F80755D0F0
:100A4000F1B2206802F090FD8046C0071DD005EB92
:100A50004611C1F8089B2068016C00EB4610D0F8E5
:100A6000082BD74B99420CD1110405D54FF4004106
:100A7000C0F8081B09E0A0E1910602D52021C0F8CA
:100A8000081BF1B22046FFF770FE5FEA087015D52B
:100A900005EB4611C1F808AB2068016C00EB46106D
:100AA000D0F8082BC74B994205D9110403D54FF450
:100AB0000041C0F8081B204600F09AFA5FEAC860BF
:100AC00003D505EB4611C1F808BB5FEA886004D581
:100AD00005EB46112020C1F8080B5FEA884005D5D8
:100AE00005EB46104FF40051C0F8081B7F08761C38
:100AF000002FA3D1206802F03FFD400348D52068B5
:100B000002F012FD0746002640E0F8073CD0F1B2A3
:100B1000206802F017FD8046C00710D006F00F01D4
:100B200009FA01F0D5F834188143C5F8341805EBFB
:100B30004610C0F80899F1B22046FFF70DFE5FEAB3
:100B4000087003D505EB4611C1F808A95FEAC86033
:100B500003D505EB4611C1F808B95FEA486004D532
:100B600005EB46114020C1F808095FEA887004D5FA
:100B700005EB46110220C1F808095FEA086003D5B9
:100B80003146204601F06EF87F08761C002FBCD15C
:100B9000206802F0F1FC002811DAD5F8040820F0F2
:100BA0000100C5F8040894F8F403012839D0204660
:100BB00000F0ECF92068416901F0004141612068D2
:100BC00002F0DAFC00050BD5D5F80808C00702D002
:100BD000204600F033FA2068416901F40061416168
:100BE000206802F0C9FC00010AD52068416901F0C3
:100BF0000061416194F8F403D8B1204600F01EFA78
:100C0000206802F0B9FCC00475D5D5F8040820F0BE
:100C10000100C5F804081021206802F063FC0021DF
:100C200035E0002084F8F40301462046FFF73AFD42
:100C3000C0E784F8F4932068406D0121C0F383007D
:100C4000C4F8F8032046FFF72DFDD9E705EB411066
:100C50004FF67F32C0F80829D0F8003923F400138A
:100C6000C0F80039D0F8003943F00063C0F800390B
:100C7000C0F8082BD0F8002B22F40012C0F8002B8B
:100C8000D0F8002B42F00062C0F8002B491C6068CD
:100C90008842DBD8D5F81C0840F00110C5F81C08C4
:100CA000206B60B1D5F8840840F00B00C5F88408CB
:100CB000D5F8440840F00B00C5F844080CE0D5F81E
:100CC000140842F22B010843C5F81408D5F810089F
:100CD00040F00B00C5F81008D5F8000820F4FE60BD
:100CE000C5F800082068009902F0A2FA206841695E
:100CF00001F480514161206802F03EFC800416D569
:100D0000206802F0B1F8206802F0FEFBE06000F01D
:100D100059FC23680146227B184602F067FC2046F6
:100D200000F020F92068416901F400514161206818
:100D300002F022FC000707D5204600F041F92068A8
:100D4000416901F008014161206802F015FCC00210
:100D500008D50021204600F03AF82068416901F4E6
:100D600080114161206802F007FC800208D5002153
:100D7000204600F030F82068416901F4001141611B
:100D8000206802F0F9FB400007D52046FFF7E0FCA1
:100D90002068416901F080414161206802F0ECFB6C
:100DA00040070AD520684568680702D52046FFF746
:100DB000E6FC206841682943416000F005B8000066
:100DC0000A31544F0A30544F18BCBDE8E08FD0F8B8
:100DD000040401F019BDD0F8040401F025BD2DE98B
:100DE000F0418AB0040005D094F8BD0326680025C0
:100DF00020B108E001200AB0BDE8F08184F8BC53BE
:100E0000204600F063F8032084F8BD03F06BC005B2
:100E100000D42561206802F08EF904F11001282227
:100E200088466846FFF7CEF994E80F0002F02AF8EA
:100E30000226C8BB0021206802F0B0FB0020012779
:100E40000EE0C0EBC00104EB810181F83D7001F8B8
:100E50003C0FC880CD708D60CD60401CC0B24D612C
:100E600061688142EDD8002011E0C0EBC00104EBC5
:100E7000810181F8FD5181F8FC0181F8FF51C1F831
:100E80000452C1F80852401CC0B2C1F81052616847
:100E90008142EAD8282241466846FFF793F994E850
:100EA0000F0002F09BF810B184F8BD63A2E784F84C
:100EB000385084F8BD73606A012802D12046FFF7DC
:100EC000DDFB206802F07CF8002094E710B586B0C6
:100ED000044614216846FFF78EF92068B0F1A04F50
:100EE0003CD11F4CE06C40F00100E064E06C6946CE
:100EF00000F0010005904FF4C050009002200190D6
:100F000000200290032003900A2004904FF09040AC
:100F1000FFF7E6F9E06C40F48050E064E06C00F428
:100F200080500590A06DC0000ED4A06D40F08050A0
:100F3000A065A06D00F08050059000F0CBF8A06D8A
:100F400020F08050A06501E000F0C4F800221146B6
:100F50004320FFF761FB4320FFF750FB06B010BDB5
:100F60000010024070B50446C0680125022801D077
:100F7000FFF7A1F92946D4F8040401F0CFFCD4F816
:100F80000404BDE8704001F082BC000010B50446C6
:100F90000068D0F8001E21F00101C0F8001E206A90
:100FA00030B10648016821F00601016001F008F83F
:100FB000D4F80404BDE8104001F096BC10ED00E048
:100FC000D0F8040401F09ABC10B5044690F8BC03B4
:100FD00001280BD0012084F8BC0384F83810206865
:100FE00002F0F3FA002084F8BC0310BD022010BD0B
:100FF000D0F8042400F57171104601F0A2BC10B5C0
:101000000446006894F8BC13012906D0012184F835
:10101000BC13A16A012902D005E0022010BD816B3A
:1010200041F480318163206802F046FA206801F0C3
:10103000B9FF002084F8BC0310BD000010B50446C1
:101040000068D0F8001E41F00101C0F8001ED4F87D
:10105000040401F0C6FC206A002804D0024801689C
:1010600041F00601016010BD10ED00E01649B0F539
:10107000007F0868C0F3412009D0022805D0086825
:1010800020F4C06040F480600860002070470128B0
:10109000FBD0086820F4C06040F4007008600B4882
:1010A0003222006850430A4AB0FBF2F0401C00E0D4
:1010B000401E4A69520501D50028F9D1486940050A
:1010C000E3D503207047000000700040A00000201E
:1010D00040420F000248416841F48061416070471E
:1010E000007000400248006800F4C06070470000D3
:1010F000007000402DE9F84F044600270088E54DB8
:101100003E46010504F1200B1DD5606E78B1B0F5A7
:10111000800F11D0B0F5000F04D0B0F5400F22D0F1
:1011200001270FE0E86840F48030E8601BE0002110
:10113000201D00F0E5FD03E00021584600F076FE9A
:10114000070010D03E462088C00426D5A06EC0B14E
:10115000B0F1807F1AD0B0F1007F0DD0B0F1407FA8
:1011600019D0012718E0D5F88800616E20F44000FE
:101170000843C5F88800E6E7E86840F48030E86096
:1011800009E00021201D00F0BBFD03E000215846CE
:1011900000F04CFE0746F7B13E46206880033AD582
:1011A000A86D4FF00008C00009D4A86D40F0805031
:1011B000A865A86D4FF0010800F080500090DFF89E
:1011C000D8A2DAF8001041F48071CAF80010FFF7D5
:1011D000BFF9814610E0D5F88800A16E20F040707C
:1011E0000843C5F88800D8E7FFF7B2F9A0EB09007B
:1011F000022801D9032705E0DAF80000C005F3D57D
:10120000002F7CD04FEA0706B8F1000F03D0A86D7D
:1012100020F08050A8652078C00707D0D5F8880056
:10122000A16B20F003000843C5F8880020788007F0
:1012300007D5D5F88800E16B20F00C000843C5F80D
:1012400088002078400707D5D5F88800216C20F069
:1012500030000843C5F888002078000707D5D5F886
:101260008800616C20F0C0000843C5F88800207831
:10127000C00607D5D5F88800A16C20F4407008435B
:10128000C5F888002078800607D5D5F88800E16C7D
:1012900020F440600843C5F888002088800507D501
:1012A000D5F88800E16D20F440200843C5F8880097
:1012B0002088400507D5D5F88800216E20F440101D
:1012C0000843C5F888002078400607D5D5F888007F
:1012D000216D20F440500843C5F8880020780006AE
:1012E00007D5D5F88800616D20F440400843C5F863
:1012F00088002088C00509D5D5F8880000E01CE0EA
:10130000A16D20F440300843C5F8880020884FF0D4
:10131000006780044FF080684FD5D5F88800E16EF3
:1013200020F040600843C5F88800E06EB8423CD128
:10133000E86840F48010E8603FE0D5F8900010F4D1
:10134000407015D0D4F88410814211D0D5F89000A7
:10135000D5F8901020F4407041F48031C5F8901019
:10136000D5F8901021F48031C5F89010C5F89000A0
:10137000C00710D0FFF7ECF8074641F2883906E0C5
:10138000FFF7E6F8C11B494501D903263CE7D5F82C
:1013900090008007F4D5D5F89000D4F8841020F49C
:1013A00040700843C5F890002EE7404505D1012163
:1013B000201D00F0A5FC00B106462068000317D5EB
:1013C000D5F88800216F20F040600843C5F88800F8
:1013D000206FB84204D1E86840F48010E86007E06C
:1013E000404505D10121201D00F08AFC00B10646D0
:1013F0002068400317D5D5F88800616F20F0406061
:101400000843C5F88800606FB84204D1E86840F42A
:101410008010E86007E0404505D10121201D00F063
:101420006FFC00B10646208840041AD5D5F8880024
:10143000A16F20F040500843C5F88800A06FB0F1BC
:10144000805F03D0B0F1005F05D00AE00221201DCB
:1014500000F056FC03E00221584600F0E7FC00B122
:1014600006462088000407D5D5F88800E16F20F0F3
:1014700080400843C5F888002068C00307D555F8A8
:10148000880FD4F8801020F00040084328603046D0
:1014900000F004B8001002400070004018BCBDE825
:1014A000E08F00002DE9F0470F46050058D0404E70
:1014B000306800F00700B84209D2306820F0070019
:1014C00038433060306800F00700B84248D12878CF
:1014D000384CC0072CD06868032811D0022812D0DD
:1014E000216898B1490500293ADAA16821F0030181
:1014F0000143A160FFF72CF8804641F2883910E0E3
:1015000021688901EFE721688903ECE78907EAE7A9
:10151000FFF71EF8A0EB0801494502D90320BDE8FA
:10152000F087A068696800F00C00B0EB810FEFD184
:101530002878800705D5A068A96820F0F000084346
:10154000A060306800F00700B8420BD9306820F086
:10155000070038433060306800F00700B84201D01F
:101560000120DCE72878400705D5A068E96820F469
:10157000E0600843A0602878000706D5A0682969C4
:1015800020F4605040EAC100A06000F021F8A1689A
:10159000094AC1F30311515C01F01F01C84007491A
:1015A000086007480068BDE8F047FEF7EFBF00009D
:1015B00000200240001002409C370008A0000020DC
:1015C000980000200148006870470000A00000203B
:1015D00070B52549002318468A68CC6812F00C02C1
:1015E00004F00306214C4FEA640509D00C2A05D00B
:1015F000042A32D0082A00D1284670BD012E10D10D
:101600000B681B0704D4D1F89430C3F3032302E022
:101610000B68C3F30313164E56F82330DAB10C2AC5
:10162000EBD1C86800F00300022818D0032818D0B6
:101630001846CA68CB68C2F30212C3F306234343B9
:10164000521CB3FBF2F2C868C0F34160401C40007A
:10165000B2FBF0F070BD184670BD204670BD20464C
:10166000E7E72846E5E70000001002400024F40008
:10167000AC3700082DE9F84304006FD0FE4DA86890
:1016800000F00C06E86800F003072078C00664D577
:1016900076B10C2E01D1012F0AD0A069002828684C
:1016A0007AD040F001002860FEF752FF80465DE0EE
:1016B0002868800702D5A0690028DED0216A286842
:1016C000000703D5286800F0F00004E0D5F8940086
:1016D000F02202EA1010814216D9084600F02AFCD6
:1016E00000283BD1286840F0080028602868216A5B
:1016F00020F0F000084328606868E16920F47F402A
:1017000040EA0120686016E0286840F00800286080
:101710002868216A20F0F000084328606868E169C1
:1017200020F47F4040EA0120686026B9206A00F07A
:1017300001FC0028D5D1FFF74BFFA968CF4AC1F3C0
:101740000311515C01F01F01C840CD490860CD482C
:101750000068FEF71BFF00287ED12EE0CAE000BF24
:10176000FEF7F6FEA0EB0800022876D8286880076E
:10177000F6D5286840F0080028602868216A20F023
:10178000F000084328606868E16920F47F4040EA7F
:101790000120686011E0FFE720F001002860FEF7FB
:1017A000D7FE804606E000BFFEF7D2FEA0EB0800A1
:1017B0000228DAD828688007F6D42078C00740D0FD
:1017C000082E18D00C2E01D1032F14D06068B0F56C
:1017D000803F17D0B0F5A02F286817D020F48030B4
:1017E0002860286820F4802028606068E0B1FEF757
:1017F000AFFE804614E02868800322D56068002888
:1018000078D01EE0286840F48030EDE740F4802076
:101810002860F7E7FEF79CFEA0EB08006428A4D838
:1018200028688003F6D50CE0FEF792FE804605E0BE
:10183000FEF78EFEA0EB0800642896D82868800387
:10184000F6D4207880073BD5042E11D00C2E01D180
:10185000022F0DD0E06801E092E1F1E00028286855
:101860001ED040F480702860FEF772FE07460CE040
:10187000286840050CD5E0680028C1D008E000BF0A
:10188000FEF766FEC01B022893D828684005F7D5EE
:101890006868217C20F0F85040EA016068600FE041
:1018A00020F480702860FEF753FE074605E000BF75
:1018B000FEF74EFEC01B0228B1D828684005F7D4B9
:1018C0002078000729D560690028D5F8940012D047
:1018D00040F00100C5F89400FEF73AFE074604E028
:1018E000FEF736FEC01B022899D8D5F89400800771
:1018F000F6D512E000E120F00100C5F89400FEF7F3
:1019000027FE074605E000BFFEF722FEC01B0228A7
:1019100085D8D5F894008007F6D42078400766D59E
:10192000A86D0027C00008D4A86D40F08050A865BD
:10193000A86D012700F08050009053480168C90548
:1019400012D40168814641F480710160FEF700FE07
:10195000804605E0FEF7FCFDA0EB080002286FD8EA
:10196000D9F80000C005F5D5A068012816D00528D3
:10197000D5F8900017D020F00100C5F89000D5F8F8
:10198000900020F0040000BFC5F89000A06841F26C
:101990008839C0B1FEF7DCFD80460FE0D5F8900035
:1019A00040F00100F0E740F00400C5F89000F5E7D2
:1019B000FEF7CEFDA0EB0801494541D8D5F89000CF
:1019C0008007F5D50EE0FEF7C3FD804606E000BFB8
:1019D000FEF7BEFDA0EB0801494531D8D5F89000CF
:1019E0008007F5D41FB1A86D20F08050A865A06ACB
:1019F00038B302280AD00C2E7ED0286820F08070E0
:101A00002860286810F0205F77D0AAE0E868E26AD2
:101A100000F0030191422BD1216B00F0700209010B
:101A20001039914224D1626B00F4FE41B1EB022FD8
:101A30001ED1A26B00F40031072A03D0012202E07C
:101A40009DE089E00022914212D1A18F00F4C002F2
:101A500049084905A1F50011914209D194F84010B7
:101A600000F0C06049084906A1F1007181425CD0D4
:101A70000C2E41D0286809E0001002409C37000875
:101A8000A0000020980000200070004040017ED49B
:101A90002868C0007BD4286820F080702860FEF79A
:101AA00057FD064605E000BFFEF752FD801B0228E9
:101AB00065D828688001F7D4D4E90B016FF00F02D4
:101AC00002EB01110843A18F5204490802EB415176
:101AD000626B41EA0221084394F840104FF07E42C5
:101AE000490802EB41610843A16B090940EA414002
:101AF000E968284A114001E049E02EE00843E86027
:101B0000286840F080702860E86840F08070E860E5
:101B1000FEF71EFD044604E0FEF71AFD001B022836
:101B20002DD828688001F7D52FE0286880012CD4B3
:101B3000286840F080702860E86840F08070E860B5
:101B4000FEF706FD044604E0FEF702FD001B022836
:101B500015D828688001F7D517E0E86820F0030061
:101B6000E860E8680C490840E860FEF7F1FC0446CC
:101B700008E000BFFEF7ECFC001B022802D903209E
:101B8000BDE8F88328688001F4D40020F8E701203C
:101B9000F6E700008C809DF9FFFFEEFE10B5401EB9
:101BA000B0F1807F01D3012010BD4FF0E0246061CF
:101BB0000F21601701F09FFD0020A0610720206128
:101BC000002010BDFEE70000F0B500230A243025F8
:101BD00037261F4611E000BFB4EB107F02D905EB9A
:101BE000107C01E006EB107C01F813C001EB430C04
:101BF00000015B1C8CF80170DBB29342ECD3F0BDAA
:101C000010B500220F49104800F0F3FC08B1FEF7B0
:101C100052FB0E490C4800F013FF08B1FEF74BFBD6
:101C20000B49094800F0CFFA08B1FEF744FB06481B
:101C300000F080FF002803D0BDE81040FEF73BBB5A
:101C400010BD0000000000207C010020A800002042
:101C500084000020FEE7FEE70148FEF789BE000091
:101C6000E40600202DE9F0470E46C1EBC60100EB6B
:101C700081040568D4E914103C34884202D901205B
:101C8000BDE8F087081AA168814200D20846C01C4E
:101C9000870805EB461817E0A0EB0109A068484546
:101CA00000D2814609F1030087081FFA89F3F2B2D6
:101CB0002846E16801F00EFDE16801EB0900E060F3
:101CC000A16901EB0900A061D8F8180980B2B842F7
:101CD00005D3D4E90501814201D20028DCD1D4E941
:101CE0000501884208D806F00F0101208840D5F888
:101CF00034188143C5F834180020C1E7704700004C
:101D00002DE9F041444C05468846E06800268107ED
:101D100028680DD0E16801F00301814216D1A8B115
:101D2000E0686968C0F30210401C88420ED120E0D0
:101D3000012804D0022805D0032807D108E0216833
:101D4000890701E021684905002907DB01265FE0DA
:101D50002168890302D421684903F5E7E1686A68CC
:101D60006FF00F0321F0730103EB021211430143E3
:101D7000E160206820F080602060FEF7E9FB074604
:101D800005E000BFFEF7E4FBC01B022837D820683F
:101D90000001F7D4B8F1000F18D0B8F1010F1ED030
:101DA000287D4FF07E41400801EB4060A96840EA81
:101DB00001202169194A114008432061206840F040
:101DC00080602060FEF7C4FB07461AE0A868E96857
:101DD0000002090940EA41402169114AEBE7288ADB
:101DE0001049400801EB4050A96840EA01202169F0
:101DF0000D4AE0E7FEF7ACFBC01B022801D9032621
:101E000006E020680001F5D52069A9690843206132
:101E10003046BDE8F081000000100240FF80FFF96D
:101E2000FF80FDFF0000E0FFFF809FFF2DE9F041F4
:101E30003D4C06468846E0680025810730680DD095
:101E4000E16801F00301814216D1A8B1E068716830
:101E5000C0F30210401C88420ED120E0012804D0BB
:101E6000022805D0032807D108E02168890701E08E
:101E700021684905002907DB012551E02168890314
:101E800002D421684903F5E7E16872686FF00F0337
:101E900021F0730103EB021211430143E16020685A
:101EA00020F080502060FEF753FB074605E000BF9E
:101EB000FEF74EFBC01B022829D820688000F7D40B
:101EC000B8F1000F15D0307C4FF07E41400801EB97
:101ED0004060B16840EA01206169144A114008433A
:101EE0006061206840F080502060FEF731FB0746BB
:101EF0000FE0B068F1680002090940EA41406169F9
:101F00000B4AEBE7FEF724FBC01B022801D903258F
:101F100006E020688000F5D560697169084360615A
:101F20002846BDE8F081000000100240FF80FFF964
:101F3000FF80FDFFF8B51C4D06460024A86DC000CB
:101F400002D5FFF7CFF80DE0A86D40F08050A865EE
:101F5000A86D00F080500090FFF7C4F8A96D21F043
:101F60008051A965B0F5007F04D0802E07D94FF0CD
:101F700003040AE0802E08D9A02E01D804E001D184
:101F8000022402E0702E00D101240848016821F0EB
:101F9000070121430160006800F00700A04201D062
:101FA0000120F8BD0020F8BD0010024000200240D2
:101FB00070470178407841EA00207047FEF7CEBABA
:101FC000F0B5B9B0442122A8FEF715F9142133A8C1
:101FD000FEF711F988216846FEF70DF9102001245B
:101FE00000262290CDE9284602256020CDE92C5418
:101FF0002A9028200727CDE92E40CDE9307532956B
:1020000022A8FFF737FB08B172B6FEE70F20339026
:102010000320CDE934063696042133A83796FFF71E
:1020200041FA08B172B6FEE74FF400500090400349
:102030001B901820CDE9024001944FF48010CDE9A7
:102040000650CDE904756846FFF754F808B172B63A
:10205000FEE74FF40070FFF709F8002801D072B6D0
:10206000FEE739B0F0BD00000B48016841F4700193
:1020700001600A48016841F00101016000218160AE
:102080000268074B1A4002608214C260026822F4A0
:10209000802202608161704788ED00E000100240FC
:1020A000FFFFF6EAD0F8BC02002180F85010084685
:1020B000704710B5D0F8BC1231B1D0F8C002C26878
:1020C00008469047002010BD032010BD70B504469F
:1020D000812100F0B1FA002525876587012120467E
:1020E00000F0AAFAA4F87851A4F87A51D4F8BC0206
:1020F00048B1D4F8C00204F52F7480688047206886
:1021000000F06DFE2560002070BD10B5D0F8BC4217
:102110001CB1E16C012902D008E0032010BDD0F809
:10212000C002C168204688470020E064002010BD3E
:102130000A21018000487047700100202921018098
:1021400000487047E00000202921018000487047C6
:102150000C0100202921018000487047380100202F
:102160002DE9F0410446542000F03AFE05004FF0FE
:10217000000624D00520C4F8BC526087A4F87A0178
:10218000402303228121204600F05EFB01272787A0
:10219000402303223946204600F056FBA4F878710C
:1021A00085F85060D4F8C0024068804740232A4632
:1021B0000121204600F05BFB0020BDE8F0810220F9
:1021C000C4F8BC62F9E719B1C0F8C012002070472A
:1021D0000320704710B51346D0F8BC2222B190F806
:1021E0009C42032C02D00DE0032010BD92F8504019
:1021F0000CB1012010BD012482F850400A46812113
:1022000000F0F8FB002010BDF8B50022D0F8BC3279
:102210001546ADF80020144633B10E7816F060066E
:1022200025D0202E5DD101E00320F8BD4A78921E12
:102230000A2A56D2DFE802F01008555555555514B4
:102240000C05887818644FE0012203F1400139E061
:102250004888000A586447E0012203F1440131E054
:102260000122DA64CA88194600F069F83CE04E7829
:10227000062E10D003DC3EB1012E32D134E00A2EFE
:1022800023D00B2E2DD128E090F89C22032A28D1B0
:102290000222694616E04B882226B6EB132F07D19F
:1022A000CA88212A00D92122D0F8C0120D6808E07E
:1022B0002126B6EB132F04D1CA880E4D092A00D966
:1022C0000922294600F055F80EE090F89C22032AD6
:1022D00007D1012203F14801F4E790F89C22032A78
:1022E00004D000F021F803242046F8BD88789864D3
:1022F000FAE700006401002010B5D0F8B8220AB156
:1023000052689047002010BD134610B50A460021C0
:1023100000F0ADFA002010BD134610B50A460021AA
:1023200000F068FB002010BD10B50446802100F0CD
:1023300038FB2046BDE81040002100F032BB10B54C
:102340000323C0F89432C0F858211346C0F85C212A
:102350000A46002100F08BFA002010BD10B50521BF
:10236000C0F8941200231A46194600F080FA0020A3
:1023700010BD10B50223C0F8943282611346C261C9
:102380000A46002100F036FB002010BD10B50421E4
:10239000C0F8941200231A46194600F02BFB0020C7
:1023A00010BD000010B50A46024903A000F0FDF878
:1023B000004810BD4C040020437573746F6D2048B5
:1023C000494420436F6E6669670000001220088050
:1023D000004870472400002010B50A46024903A0B7
:1023E00000F0E3F8004810BD4C04002043757374FE
:1023F0006F6D2048494420496E746572666163655B
:1024000000000000042008800048704720000020E1
:1024100010B50A46024903A000F0C7F8004810BDF5
:102420004C04002053544D6963726F656C6563748E
:10243000726F6E696373000010B50A46024903A00B
:1024400000F0B3F8004810BD4C04002053544D3345
:102450003220437573746F6D2048756D616E20690D
:102460006E746572666163650000000010B51A2025
:1024700008800A480168001D0468001D00680818EB
:1024800009D008220649FFF79FFB054904221031B5
:102490002046FFF799FB0248801E10BD9075FF1F74
:1024A000460000200C2008800048704738000020BB
:1024B000F8B504460020ADF8000048880D46010A32
:1024C000062947D006DC01290FD0022912D00329A2
:1024D00062D11DE0072946D00F295DD1D4F8B4029E
:1024E000C26920E0694690473BE0D4F8B412207CF2
:1024F0000A68F7E7207C02260028D4F8B80205D045
:10250000C16A684688470146467036E0816AF8E746
:10251000C0B2062840D2DFE800F003090D111519FA
:10252000D4F8B4024268B2B3207CDBE7D4F8B4023A
:102530008268F8E7D4F8B402C268F4E7D4F8B402C9
:102540000269F0E7D4F8B4024269ECE7D4F8B402C7
:102550008269E8E7207CF0B9D4F8B802416B68469C
:102560008847014609E0207CA8B9D4F8B802016B7D
:1025700068468847014607204870EA888AB1BDF856
:10258000000040B1824200D90246ADF8002020464A
:10259000FFF7EFFEF8BDFFE729462046FFF7C4FE30
:1025A000F8E72046FFF7F2FEF4E770B500230028B5
:1025B0001ED00025044602E06D1CEDB2641C267896
:1025C000002EF9D1022404EB450414801278CA5479
:1025D0005B1C0322CA5400245B1C06E0CA545B1C2B
:1025E000DAB28C54521CD3B2401C0278002AF5D1C6
:1025F00070BD78B10023C0F8B832C0F8C032C0F85E
:10260000CC3209B1C0F8B412012180F89C120270DA
:1026100000F0BAB80320704710B50024D0F8C40207
:10262000FEF7D7F830B1012801D0022801D00324E9
:1026300000E00124204610BD10B50024D0F8C402EB
:10264000FEF7A1F830B1012801D0022801D00324FF
:1026500000E00124204610BD70B51646044621B1A5
:1026600094F89C02032841D048E0D4F8941204F175
:1026700014000025022932D1D0E902318B4206D95B
:102680005A1A826031462046FFF746FE0FE0994213
:1026900014D14068884211D3D4F8981288420DD2E0
:1026A000002211462046FFF737FEC4F89852002357
:1026B0001A461946204600F0DAF810E094F89C0219
:1026C000032805D1D4F8B802C16809B1204688476B
:1026D0008021204600F065F92046FFF73FFE94F880
:1026E000A00201280AD184F8A05207E0D4F8B80269
:1026F00042691AB120469047002800D1002070BDE1
:1027000010B51346044621B194F89C02032823D047
:102710002AE0D4F8941204F5AA70032924D1D0E950
:10272000021291420AD98A1A8260C068824200D39A
:10273000024619462046FFF7E7FD15E094F89C0293
:10274000032805D1D4F8B802016909B120468847A9
:102750002046FFF71BFE07E0D4F8B80282691AB1E1
:1027600020469047002800D1002010BD002070476F
:1027700010B5012180F89C12D0F8B82212B152682D
:1027800001799047002010BD10B5017839BB15497B
:10279000C1F80404C0F8C4124FF0A040086006203D
:1027A00048600220C86088610020C86108624862F1
:1027B00088620863C8620846FEF711FB08B1FDF79E
:1027C0007AFD80210748FDF79DFF40220021054842
:1027D000FDF79CFF802201210248FDF797FF0020B2
:1027E00010BD0000E40600200A0601F07F01D0F8C9
:1027F000C402C1EBC10100EB810002D590F83E009C
:10280000704790F8FE01704710B5D0F8B82222B199
:1028100090F89C32032B02D004E0032010BD126A12
:1028200002B19047002010BD10B5D0F8B82222B1F7
:1028300090F89C32032B02D004E0032010BD526AB2
:1028400002B19047002010BD70B51D46134600240C
:10285000D0F8C4022A46FDF7EAFF30B1012801D0C2
:10286000022801D0032400E00124204670BD10B5E9
:102870000024D0F8C402FEF70AF830B1012801D0D4
:10288000022801D0032400E00124204610BD70B5C9
:102890000125044680F89C520020C4F89402606030
:1028A000C4F8A402D4F8B802E0B1D4F8BC1221B143
:1028B000426812B100212046904700224023114671
:1028C0002046FFF7C1FF4026A4F86451334600229A
:1028D00080212046C4F86061FFF7B6FFA584002080
:1028E000266270BD032070BD90F89C12042903D1AC
:1028F00090F89D1280F89C120020704710B5D0F817
:10290000B81221B190F89C22032A02D004E00320DF
:1029100010BDC96901B18847002010BD01740020B5
:10292000704710B50024D0F8C402FEF74DFB30B15B
:10293000012801D0022801D0032400E00124204610
:1029400010BD70B5044600F2AA20054600F062F8FA
:102950000120C4F89402B4F8B002C4F8980294F8C4
:10296000AA0210F01F010AD001290ED0022912D0AC
:1029700000F080012046BDE8704000F012B8294602
:102980002046BDE8704000F0D7B829462046BDE893
:10299000704000F0FBB929462046BDE8704000F0C9
:1029A00055B910B50024D0F8C402FDF78DFF30B141
:1029B000012801D0022801D0032400E00124204690
:1029C00010BD10B50024D0F8C402FEF718FB30B1DA
:1029D000012801D0022801D0032400E00124204670
:1029E00010BD90F89C1280F89D12042180F89C1272
:1029F0000020704710B50024D0F8C402FDF79DFFF9
:102A000030B1012801D0022801D0032400E00124C4
:102A1000204610BD70B5054611F8010B28700878E6
:102A200068704C1C2046FFF7C4FA6880A41C20463E
:102A3000FFF7BFFAA880A01CFFF7BBFAE88070BDC3
:102A400038B504460020ADF8000049B1C4F8B8120A
:102A5000C96A19B168468847C4F8CC02002038BD5D
:102A6000032038BD02460320D2F8B832002B02D032
:102A70001B681046184770472DE9F0410F462C4E51
:102A80008978002504463170012906D93946204647
:102A9000FFF74AFC0320BDE8F08194F89C0202286D
:102AA0000CD003281DD039462046FFF73DFC317875
:102AB0002046FFF721FC03252846ECE799B3204682
:102AC0006160FFF7CFFF050004D039462046FFF7CD
:102AD0002BFCF1E72046FFF759FC032084F89C0209
:102AE000EAE74FF00208C1B1606888421BD0C1B26A
:102AF0002046FFF701FC317820466160FFF7B2FF06
:102B0000050010D039462046FFF70EFC21792046FB
:102B1000FFF7F2FB84F89C82CEE784F89C82204683
:102B20006160FFF7E9FB2046FFF730FCC4E70000D7
:102B3000A4000020FFF745BF2DE9F0410A780025E9
:102B400012F0600208D0202A01D0402A71D1D0F8BA
:102B5000B8229268904731E04B78002201260A2B78
:102B600067D2DFE803F0415E6658660805662D29E6
:102B7000FFF79EFC5FE004468888D8B9C888C8B9CA
:102B80004888802816D200F07F0794F89C0203281A
:102B900010D084F89E7239462046FFF7C2FE2046C8
:102BA000FFF7F4FB1FB1022084F89C0243E084F895
:102BB0009C6240E020463CE0FFF75EFF05463AE0BD
:102BC000CB88012B35D190F89C32012B04D0022BFD
:102BD00002D0032B2DD104E08260012200F1080114
:102BE00016E00122011D13E090F89C22012A03D077
:102BF000022A01D0032A1CD1CA88022A19D1C66030
:102C0000D0F8A41209B10321C160022200F10C0125
:102C1000FFF7AFFB0FE0498801290CD1C0F8A4628F
:102C200011E090F89C32012B08D0022B06D0032B28
:102C300004D0FFF779FB2846BDE8F08149880129D7
:102C4000F9D1C0F8A422FFF7A1FBF4E72DE9F04188
:102C50000D46044628780026097910F060000BD054
:102C6000202801D040286DD1D4F8B80229468268C6
:102C700020469047064686E06878A8B3012822D00F
:102C800003287CD194F89C02022802D0032876D134
:102C90000BE0002973D0802971D02046FFF781FE18
:102CA00080212046FFF77DFE6DE0688838B931B19C
:102CB000802904D0E88810B92046FFF772FE20462C
:102CC000FFF764FB5FE094F89C020228E1D0032840
:102CD00055D16888A8BB480602D02046FFF79CFC67
:102CE0002046FFF753FBBFE7FFE794F89C0200275D
:102CF000022802D0032842D111E009B180293ED137
:102D0000080601F07F0000EB800004EB800101D594
:102D1000143101E001F5AA7102220F602BE00806D0
:102D200001F00F0000EB800004EB80000BD5808CDD
:102D300040B101F07F0000EB800004EB800514350A
:102D40000CE020E01BE0B0F86401C0B101F07F00AE
:102D500000EB800004EB800505F5AA7541B18029E0
:102D600006D02046FFF740FD10B10120286000E0AA
:102D70002F60022229462046FFF7FBFA03E029468E
:102D80002046FFF7D1FA3046BDE8F08170B506461F
:102D9000087800240D4610F0600003D0202801D0F0
:102DA000402817D196F89C02012803D0022801D0B0
:102DB00003280FD1287901280CD8D6F8B8028268E8
:102DC000304690470446E888204306D13046FFF756
:102DD000DDFA02E03046FFF7A7FA204670BD7047E3
:102DE000004870478C06002070B50A78012302F075
:102DF0000F054E78AB401B4CD0F81C58012E17D055
:102E000045EA0343C0F81C3800EB4210D0F8002B11
:102E100012040BD4D0F8002B0B89C978C3F30A0332
:102E20001A4344EA81410A43C0F8002B002070BDD8
:102E30009BB21D43C0F81C5800EB4210D0F800397B
:102E40001B04F3D4D0F800390D89C978C5F30A05FD
:102E500089042B4341EA82510B432343C0F80039D4
:102E6000E4E7000000800010D0F800196FF30A01B9
:102E7000C0F80019D0F8041841F48071C0F80418A3
:102E80000020704730B5C168099C41F04001C16025
:102E900001231049032202E05B1C8B420FD8056915
:102EA000002DF9DA036943F001030361012302E015
:102EB0005B1C8B4203D80569ED07F9D10022816BB9
:102EC00024B121F480318163104630BD41F480315A
:102ED000F9E70000400D030030B54C780A78012373
:102EE00000EB4212012C2CD0D2F8004B002C0BDA54
:102EF000D2F8004B44F00064C2F8004BD2F8004B0B
:102F000044F08044C2F8004BD0F83C580C7804F0F0
:102F10000F0403FA04F425EA0444C0F83C48D0F84E
:102F20001C48097801F00F018B4024EA0341C0F8E6
:102F30001C18D2F8000B19490840C2F8000B0020F9
:102F400030BDD2F80049002C0BDAD2F8004944F029
:102F50000064C2F80049D2F8004944F08044C2F845
:102F60000049D0F83C480D7805F00F0503FA05F547
:102F7000ADB2AC43C0F83C48D0F81C48097801F029
:102F80000F018B4099B28C43C0F81C48D2F800095D
:102F900003490840C2F80009D1E700000078F3EFC8
:102FA000007833ECD0F8001E21F00301C0F8001EB9
:102FB000D0F8041821F00201C0F80418002070476E
:102FC000D0F8001E21F00301C0F8001ED0F804184C
:102FD00041F00201C0F80418002070472DE9F04FBD
:102FE00000250E460446DDF830B0109F28462946DD
:102FF00004EB8002C2F80411401C0F28F8D32046CD
:103000005FB3806B40F40012A26308468846C4F8A0
:10301000000ED4F800182046C4F80018D4F80018A0
:1030200041F00301C4F80018102100F05BFA00B170
:103030000125204600F046FA00B101254046C4F8BB
:103040001088C4F81488C4F81C8800214FF0006967
:103050004FF0904A4FF67F3327E0D0F8040840F055
:103060000202C4F80428A06B20F40012A2632068B6
:1030700040F040022260206840F080022260C4E7F5
:1030800004EB4112D2F800C9BCF1000F06DA11B10D
:10309000C2F800A904E0C4F8009901E0C2F80009F0
:1030A000C2F81009C2F80839491C8E42E8D800213C
:1030B00015E000BF04EB4112D2F800CBBCF1000FC9
:1030C00006DA11B1C2F800AB04E0C4F8009B01E0DD
:1030D000C2F8000BC2F8100BC2F8083B491C8E4224
:1030E000E8D8D4F8101821F48072C4F81028A06130
:1030F0006FF080406061A06940F01000A061A0699D
:1031000009490843A061BBF1000F03D0A06940F05A
:103110000800A061012F03D1A06904490843A06100
:10312000284600F005B8000000383C80040000404C
:1031300030BCBDE8C08F816821F0010181600020B2
:103140007047000030B50C784D78384BE2B200EB98
:103150004212012D24D0D2F8100B6FF31200C2F8E6
:10316000100BD2F8100B1840C2F8100B486908B1C8
:1031700088684861D2F8100B40F40020C2F8100BA8
:10318000D2F8100B8968C1F312010843C2F8100B82
:10319000D2F8000B40F00440C2F8000B002030BD14
:1031A0004D69002DD2F8105932D06FF31205C2F8D4
:1031B0001059D2F810591D40C2F810594D698B684A
:1031C0009D4200D94B61D2F8103943F40023C2F874
:1031D0001039D2F810394D69C5F3120553EA0503C9
:1031E000C2F8103900EB4412D2F8003943F004431E
:1031F000C2F800394A69002AD0D0D0F834280978BA
:1032000001F00F03012199400A43C0F83428C5E7B3
:103210001D40C2F81059D2F8103943F40023C2F807
:103220001039D2F810396FF31203D9E7FFFF07E026
:10323000016C0F4A914203D9D0F8001B002914DB1E
:103240000021C0F8101BD0F8101B41F40021C0F879
:10325000101BD0F8101B41F01801C0F8101BD0F85B
:10326000101B41F0C041C0F8101B00207047000047
:103270000A30544F4A780B78012A00EB43100BD0E8
:10328000D0F8002B22F40012C0F8002BC9780329D3
:1032900014D0022912D017E0D0F8002922F400122D
:1032A000C0F80029C978032901D002290CD1D0F82F
:1032B000001941F08051C0F8001905E0D0F8001B5A
:1032C00041F08051C0F8001B002070470A784B780D
:1032D000D1B200EB4110012B12D0D0F8001B002915
:1032E00006DB2AB1D0F8001B21F08041C0F8001B9A
:1032F000D0F8001B41F40011C0F8001B00207047FB
:10330000D0F80019002906DB2AB1D0F8001921F005
:103310008041C0F80019D0F8001941F40011C0F83C
:103320000019EBE770B50D784E78624BEAB26FF09A
:10333000604400EB4212012E27D0D2F8105B6FF3ED
:103340001205C2F8105BD2F8105B1D40C2F8105B8A
:103350004D69002D73D08B681D446D1EB5FBF3F3D2
:10336000D2F8105B9BB204EAC3442543C2F8105B59
:10337000D2F8104B8D685D43C5F312031C43C2F8AD
:10338000104BC97801296FD08CE04E691EB3D2F87A
:1033900010696FF31206C2F81069D2F810691E4066
:1033A000C2F810694E698B681E44761EB6FBF3F3B3
:1033B00004EAC343D2F810492343C2F81039D2F8C3
:1033C00010394C69C4F312042343C2F81039CB7886
:1033D000012B10D01BE0D2F810491C40C2F8104954
:1033E000D2F8103943F40023C2F81039D2F810395A
:1033F0006FF3120309E0D2F8103923F0C043C2F88A
:103400001039D2F8103943F00053C2F8103900EBEC
:103410004512D2F8003943F00443C2F80039CB78A2
:10342000012B0DD04A697AB3D0F83428097801F01D
:103430000F03012199400A43C0F8342838E014E012
:10344000D0F80838DB05D2F8003902D443F0005335
:1034500001E043F08053C2F800398A8A93B20A78B7
:10346000C96800F037F923E00FE0D2F8103B8C6810
:10347000C4F312042343C2F8103BD2F8103B43F4C8
:103480000023C2F8103B7CE712E0D0F80808C00522
:10349000D2F8000B02D440F0005001E040F0805020
:1034A000C2F8000BD2F8000B40F00440C2F8000B49
:1034B000002070BDFFFF07E0816841F001018160DD
:1034C00000207047002110220261054A491C9142E8
:1034D00001D9032070470369DB06F7D40020704749
:1034E000400D03000022202343EA811101610549B8
:1034F000521C8A4201D90320704703699B06F7D406
:1035000000207047400D0300D0F8080800F00600C6
:10351000022803D0062801D00F20704702207047F0
:10352000406900F001007047D0F81818D0F81C0866
:10353000084080B27047D0F81818D0F81C0808402E
:10354000000C704710B5D0F81038D0F8342801F0CE
:103550000F0400EB4110E24002F00102D0F808092C
:1035600043EAC212104010BD00EB4111D1F8081B14
:10357000D0F81408084070474169806908407047D6
:10358000D21C10B59308002200F5805002E00468B8
:10359000521C10C19A42FAD3084610BD10B5C26839
:1035A00022F0C042C260012902D029B1012010BD21
:1035B000C16841F0005102E0C16841F08041C16042
:1035C0003220FCF77BFE002010BDD0F8002822F44A
:1035D000FE62C0F80028D0F800284FF4FE6303EA2A
:1035E00001110A43C0F8002800207047022A2ED19A
:1035F000264A274B0A449A4201D20F2138E0254A35
:10360000254B0A449A4201D20E2131E0234A244B31
:103610000A449A4201D20D212AE0224A224B0A444E
:103620009A4201D20C2123E0204A214B0A449A42BB
:1036300001D20B211CE01F4A1F4B0A449A4201D2BF
:103640000A2115E01D4A1E4B0A449A4201D2092163
:103650000EE01C4A1C4B0A449A4201D2082107E0A2
:103660001A4A11441A4A914201D2072100E0062168
:10367000C26822F47052C260C2684FF4705303EA09
:1036800081210A43C260002070470000405327FF99
:1036900000350C00401E1BFF40420F0000DC0BFFFA
:1036A000804F1200808CF9FE20D6130060B6E5FE34
:1036B00060E3160000D3CEFE40771B00C05BB3FE74
:1036C000C091210000CA91FE20753800E05459FED7
:1036D000E09C410010B5DB1C9C0800EB023000238D
:1036E00000F5805002E004C902605B1CA342FAD3DB
:1036F000002010BDFEE70907090E002804DB00F1D9
:10370000E02080F80014704700F00F0000F1E02086
:1037100080F8141D704702E008C8121F08C1002A73
:10372000FAD170477047002001E001C1121F002A42
:10373000FBD1704786B0FCF719FFFEF741FC14215E
:103740006846FCF758FD1348C16C41F01001C16494
:10375000C16C01F010010591C16C41F00101C1641F
:10376000C06C0D4D00F001004FF4827405900022F2
:1037700021462846FCF7E7FE012000210094CDE910
:103780000101039169462846FCF7AAFDFEF738FAC5
:10379000FEE700000010024000100048000000009A
:1037A000000000000102030406070809A0860100CA
:1037B000400D0300801A060000350C0040420F0047
:1037C00080841E0000093D0000127A000024F400ED
:1037D00000366E010048E801006CDC02FC3700088E
:1037E000000000207C01000030020008C8380008FA
:1037F0007C010020740D00002637000813CD23142F
:103800000805241B0811041A39041A6D041AA5149A
:103810001AD9041AA50C3009040309041201010283
:1038200016408304505726020102030114050F0CB1
:103830002D0107100219031A1A03120617FF0901B6
:10384000A101151326FF2809750895400901810279
:1038500006300A910295010901B102C022601420CC
:103860008D021B0889041A9104195F1182105309F3
:103870003D1361211408CD201408092242081A0BB7
:10388000101AA5101AB304C11A49181A3D041A5582
:10389000041A31041409022913010125C032090454
:1038A0002A02A915092111011401222116070581F7
:1038B00003402D0A07050107291A09562C691A31F8
:0838C000130A0632022A40E45B
:040000050800018965
:00000001FF
